{
  "transactions": [
    {
      "hash": "0xf383d3014d28bca19c8b82260201eacde9e67b27456ac3ed7ddfb889503c2b9e",
      "transactionType": "CALL",
      "contractName": null,
      "contractAddress": "0x6095b97b23ed4d0a3cbffd2e5446b45d8e5eb5ca",
      "function": "approve(address,uint8,bool)",
      "arguments": [
        "0xC023B4a500BA76934f5e0489690d108335FA7230",
        "2",
        "true"
      ],
      "transaction": {
        "from": "0xc023b4a500ba76934f5e0489690d108335fa7230",
        "to": "0x6095b97b23ed4d0a3cbffd2e5446b45d8e5eb5ca",
        "gas": "0x23c7a338",
        "value": "0x0",
        "input": "0xe188344e000000000000000000000000c023b4a500ba76934f5e0489690d108335fa723000000000000000000000000000000000000000000000000000000000000000020000000000000000000000000000000000000000000000000000000000000001",
        "nonce": "0x3a",
        "chainId": "0x138b"
      },
      "additionalContracts": [],
      "isFixedGasLimit": false
    }
  ],
  "receipts": [
    {
      "status": "0x1",
      "cumulativeGasUsed": "0x16c8f6ca",
      "logs": [
        {
          "address": "0x6095b97b23ed4d0a3cbffd2e5446b45d8e5eb5ca",
          "topics": [
            "0x0e23e0efeab8cf5a77a53c11b2d2f809144a38d168d7e77aaef7477518cd3b47",
            "0x000000000000000000000000c023b4a500ba76934f5e0489690d108335fa7230"
          ],
          "data": "0x00000000000000000000000000000000000000000000000000000000000000020000000000000000000000000000000000000000000000000000000000000001",
          "blockHash": "0xed62a475eda37cd538edf3ba17a689b681caac4defeb929de001726d0ec709ce",
          "blockNumber": "0x1fd69fa",
          "blockTimestamp": "0x696656d5",
          "transactionHash": "0xf383d3014d28bca19c8b82260201eacde9e67b27456ac3ed7ddfb889503c2b9e",
          "transactionIndex": "0x1",
          "logIndex": "0x0",
          "removed": false
        }
      ],
      "logsBloom": "0x00000000000000000000000000000000001100000000000000000000000000000000000000000000000000000000000000000000000000000001000000000000000000000000000000000000000000000000000000000000000000000000000000000000000000000000000000000000000000000000000000000000000000000000010000000000000000000000000000100000000000000000000000001000000002000000000000000000000000000010000000000000000000000000000000000000080000000000000000000000000000000000000000000000000000000000000000000000000000000000000000000000000000000000000000000000",
      "type": "0x0",
      "transactionHash": "0xf383d3014d28bca19c8b82260201eacde9e67b27456ac3ed7ddfb889503c2b9e",
      "transactionIndex": "0x1",
      "blockHash": "0xed62a475eda37cd538edf3ba17a689b681caac4defeb929de001726d0ec709ce",
      "blockNumber": "0x1fd69fa",
      "gasUsed": "0x16c83fad",
      "effectiveGasPrice": "0x132b3a0",
      "from": "0xc023b4a500ba76934f5e0489690d108335fa7230",
      "to": "0x6095b97b23ed4d0a3cbffd2e5446b45d8e5eb5ca",
      "contractAddress": null,
      "l1Fee": "0x53bfa445dd5c",
      "l1FeeScalar": "0.01",
      "l1GasPrice": "0x40f9be91",
      "l1GasUsed": "0xa18",
      "tokenRatio": "0xcc5"
    }
  ],
  "libraries": [],
  "pending": [],
  "returns": {},
  "timestamp": 1768314582494,
  "chain": 5003,
  "commit": null
}